{
    "_format": "hh-sol-artifact-1",
    "contractName": "Tip",
    "sourceName": "contracts/Tip.sol",
    "abi": [
        {
            "inputs": [],
            "stateMutability": "nonpayable",
            "type": "constructor"
        },
        {
            "anonymous": false,
            "inputs": [
                {
                    "indexed": true,
                    "internalType": "address",
                    "name": "from",
                    "type": "address"
                },
                {
                    "indexed": false,
                    "internalType": "uint256",
                    "name": "timestamp",
                    "type": "uint256"
                },
                {
                    "indexed": false,
                    "internalType": "string",
                    "name": "name",
                    "type": "string"
                },
                {
                    "indexed": false,
                    "internalType": "string",
                    "name": "message",
                    "type": "string"
                }
            ],
            "name": "NewMemo",
            "type": "event"
        },
        {
            "inputs": [
                {
                    "internalType": "address",
                    "name": "newOwner",
                    "type": "address"
                }
            ],
            "name": "changeContractOwner",
            "outputs": [],
            "stateMutability": "nonpayable",
            "type": "function"
        },
        {
            "inputs": [],
            "name": "getMemos",
            "outputs": [
                {
                    "components": [
                        {
                            "internalType": "address",
                            "name": "from",
                            "type": "address"
                        },
                        {
                            "internalType": "uint256",
                            "name": "timestamp",
                            "type": "uint256"
                        },
                        {
                            "internalType": "string",
                            "name": "name",
                            "type": "string"
                        },
                        {
                            "internalType": "string",
                            "name": "message",
                            "type": "string"
                        }
                    ],
                    "internalType": "struct Tip.Memo[]",
                    "name": "",
                    "type": "tuple[]"
                }
            ],
            "stateMutability": "view",
            "type": "function"
        },
        {
            "inputs": [],
            "name": "getOwner",
            "outputs": [
                {
                    "internalType": "address",
                    "name": "",
                    "type": "address"
                }
            ],
            "stateMutability": "view",
            "type": "function"
        },
        {
            "inputs": [
                {
                    "internalType": "string",
                    "name": "_name",
                    "type": "string"
                },
                {
                    "internalType": "string",
                    "name": "_message",
                    "type": "string"
                }
            ],
            "name": "sendTip",
            "outputs": [],
            "stateMutability": "payable",
            "type": "function"
        },
        {
            "inputs": [
                {
                    "internalType": "address payable",
                    "name": "withdrawalAddress",
                    "type": "address"
                }
            ],
            "name": "withdrawTips",
            "outputs": [],
            "stateMutability": "nonpayable",
            "type": "function"
        }
    ],
    "bytecode": "0x608060405234801561001057600080fd5b50336000806101000a81548173ffffffffffffffffffffffffffffffffffffffff021916908373ffffffffffffffffffffffffffffffffffffffff160217905550610ed2806100606000396000f3fe60806040526004361061004a5760003560e01c80633ead67b51461004f57806354cafb0414610078578063865c517214610094578063893d20e8146100bf578063ee697850146100ea575b600080fd5b34801561005b57600080fd5b506100766004803603810190610071919061063f565b610113565b005b610092600480360381019061008d91906107b2565b6101ae565b005b3480156100a057600080fd5b506100a9610328565b6040516100b691906109fd565b60405180910390f35b3480156100cb57600080fd5b506100d461050b565b6040516100e19190610a2e565b60405180910390f35b3480156100f657600080fd5b50610111600480360381019061010c9190610a87565b610534565b005b60008054906101000a900473ffffffffffffffffffffffffffffffffffffffff1673ffffffffffffffffffffffffffffffffffffffff163373ffffffffffffffffffffffffffffffffffffffff161461016b57600080fd5b806000806101000a81548173ffffffffffffffffffffffffffffffffffffffff021916908373ffffffffffffffffffffffffffffffffffffffff16021790555050565b600034116101f1576040517f08c379a00000000000000000000000000000000000000000000000000000000081526004016101e890610b11565b60405180910390fd5b600160405180608001604052803373ffffffffffffffffffffffffffffffffffffffff16815260200142815260200184815260200183815250908060018154018082558091505060019003906000526020600020906004020160009091909190915060008201518160000160006101000a81548173ffffffffffffffffffffffffffffffffffffffff021916908373ffffffffffffffffffffffffffffffffffffffff1602179055506020820151816001015560408201518160020190816102b99190610d3d565b5060608201518160030190816102cf9190610d3d565b5050503373ffffffffffffffffffffffffffffffffffffffff167fc56140e05f516509ae28110e0f72e17558a7561630dad2647c3ae87d986e365c42848460405161031c93929190610e57565b60405180910390a25050565b60606001805480602002602001604051908101604052809291908181526020016000905b8282101561050257838290600052602060002090600402016040518060800160405290816000820160009054906101000a900473ffffffffffffffffffffffffffffffffffffffff1673ffffffffffffffffffffffffffffffffffffffff1673ffffffffffffffffffffffffffffffffffffffff168152602001600182015481526020016002820180546103df90610b60565b80601f016020809104026020016040519081016040528092919081815260200182805461040b90610b60565b80156104585780601f1061042d57610100808354040283529160200191610458565b820191906000526020600020905b81548152906001019060200180831161043b57829003601f168201915b5050505050815260200160038201805461047190610b60565b80601f016020809104026020016040519081016040528092919081815260200182805461049d90610b60565b80156104ea5780601f106104bf576101008083540402835291602001916104ea565b820191906000526020600020905b8154815290600101906020018083116104cd57829003601f168201915b5050505050815250508152602001906001019061034c565b50505050905090565b60008060009054906101000a900473ffffffffffffffffffffffffffffffffffffffff16905090565b60008054906101000a900473ffffffffffffffffffffffffffffffffffffffff1673ffffffffffffffffffffffffffffffffffffffff163373ffffffffffffffffffffffffffffffffffffffff161461058c57600080fd5b8073ffffffffffffffffffffffffffffffffffffffff166108fc479081150290604051600060405180830381858888f193505050506105ca57600080fd5b50565b6000604051905090565b600080fd5b600080fd5b600073ffffffffffffffffffffffffffffffffffffffff82169050919050565b600061060c826105e1565b9050919050565b61061c81610601565b811461062757600080fd5b50565b60008135905061063981610613565b92915050565b600060208284031215610655576106546105d7565b5b60006106638482850161062a565b91505092915050565b600080fd5b600080fd5b6000601f19601f8301169050919050565b7f4e487b7100000000000000000000000000000000000000000000000000000000600052604160045260246000fd5b6106bf82610676565b810181811067ffffffffffffffff821117156106de576106dd610687565b5b80604052505050565b60006106f16105cd565b90506106fd82826106b6565b919050565b600067ffffffffffffffff82111561071d5761071c610687565b5b61072682610676565b9050602081019050919050565b82818337600083830152505050565b600061075561075084610702565b6106e7565b90508281526020810184848401111561077157610770610671565b5b61077c848285610733565b509392505050565b600082601f8301126107995761079861066c565b5b81356107a9848260208601610742565b91505092915050565b600080604083850312156107c9576107c86105d7565b5b600083013567ffffffffffffffff8111156107e7576107e66105dc565b5b6107f385828601610784565b925050602083013567ffffffffffffffff811115610814576108136105dc565b5b61082085828601610784565b9150509250929050565b600081519050919050565b600082825260208201905092915050565b6000819050602082019050919050565b61085f81610601565b82525050565b6000819050919050565b61087881610865565b82525050565b600081519050919050565b600082825260208201905092915050565b60005b838110156108b857808201518184015260208101905061089d565b60008484015250505050565b60006108cf8261087e565b6108d98185610889565b93506108e981856020860161089a565b6108f281610676565b840191505092915050565b60006080830160008301516109156000860182610856565b506020830151610928602086018261086f565b506040830151848203604086015261094082826108c4565b9150506060830151848203606086015261095a82826108c4565b9150508091505092915050565b600061097383836108fd565b905092915050565b6000602082019050919050565b60006109938261082a565b61099d8185610835565b9350836020820285016109af85610846565b8060005b858110156109eb57848403895281516109cc8582610967565b94506109d78361097b565b925060208a019950506001810190506109b3565b50829750879550505050505092915050565b60006020820190508181036000830152610a178184610988565b905092915050565b610a2881610601565b82525050565b6000602082019050610a436000830184610a1f565b92915050565b6000610a54826105e1565b9050919050565b610a6481610a49565b8114610a6f57600080fd5b50565b600081359050610a8181610a5b565b92915050565b600060208284031215610a9d57610a9c6105d7565b5b6000610aab84828501610a72565b91505092915050565b600082825260208201905092915050565b7f63616e27742073656e6420612074697020666f72206672656521000000000000600082015250565b6000610afb601a83610ab4565b9150610b0682610ac5565b602082019050919050565b60006020820190508181036000830152610b2a81610aee565b9050919050565b7f4e487b7100000000000000000000000000000000000000000000000000000000600052602260045260246000fd5b60006002820490506001821680610b7857607f821691505b602082108103610b8b57610b8a610b31565b5b50919050565b60008190508160005260206000209050919050565b60006020601f8301049050919050565b600082821b905092915050565b600060088302610bf37fffffffffffffffffffffffffffffffffffffffffffffffffffffffffffffffff82610bb6565b610bfd8683610bb6565b95508019841693508086168417925050509392505050565b6000819050919050565b6000610c3a610c35610c3084610865565b610c15565b610865565b9050919050565b6000819050919050565b610c5483610c1f565b610c68610c6082610c41565b848454610bc3565b825550505050565b600090565b610c7d610c70565b610c88818484610c4b565b505050565b5b81811015610cac57610ca1600082610c75565b600181019050610c8e565b5050565b601f821115610cf157610cc281610b91565b610ccb84610ba6565b81016020851015610cda578190505b610cee610ce685610ba6565b830182610c8d565b50505b505050565b600082821c905092915050565b6000610d1460001984600802610cf6565b1980831691505092915050565b6000610d2d8383610d03565b9150826002028217905092915050565b610d468261087e565b67ffffffffffffffff811115610d5f57610d5e610687565b5b610d698254610b60565b610d74828285610cb0565b600060209050601f831160018114610da75760008415610d95578287015190505b610d9f8582610d21565b865550610e07565b601f198416610db586610b91565b60005b82811015610ddd57848901518255600182019150602085019450602081019050610db8565b86831015610dfa5784890151610df6601f891682610d03565b8355505b6001600288020188555050505b505050505050565b610e1881610865565b82525050565b6000610e298261087e565b610e338185610ab4565b9350610e4381856020860161089a565b610e4c81610676565b840191505092915050565b6000606082019050610e6c6000830186610e0f565b8181036020830152610e7e8185610e1e565b90508181036040830152610e928184610e1e565b905094935050505056fea26469706673582212209cf974ce97d7c372e8272a98ac7b3299708ddaedd1ad4c50581d9933b96c3c0d64736f6c63430008180033",
    "linkReferences": {},
    "deployedLinkReferences": {}
}